{
  "_format": "hh-sol-artifact-1",
  "contractName": "Charitable",
  "sourceName": "contracts/Charitable.sol",
  "abi": [
    {
      "anonymous": false,
      "inputs": [
        {
          "indexed": false,
          "internalType": "string",
          "name": "id",
          "type": "string"
        },
        {
          "indexed": false,
          "internalType": "string",
          "name": "fullName",
          "type": "string"
        },
        {
          "indexed": false,
          "internalType": "address",
          "name": "applicantAddress",
          "type": "address"
        }
      ],
      "name": "NewApplicant",
      "type": "event"
    },
    {
      "anonymous": false,
      "inputs": [
        {
          "indexed": false,
          "internalType": "address",
          "name": "from",
          "type": "address"
        },
        {
          "indexed": false,
          "internalType": "address",
          "name": "to",
          "type": "address"
        },
        {
          "indexed": false,
          "internalType": "uint256",
          "name": "amount",
          "type": "uint256"
        },
        {
          "indexed": false,
          "internalType": "uint256",
          "name": "timestamp",
          "type": "uint256"
        },
        {
          "indexed": false,
          "internalType": "string",
          "name": "message",
          "type": "string"
        }
      ],
      "name": "NewTransaction",
      "type": "event"
    },
    {
      "inputs": [],
      "name": "getAllApplicants",
      "outputs": [
        {
          "components": [
            {
              "internalType": "string",
              "name": "id",
              "type": "string"
            },
            {
              "internalType": "string",
              "name": "fullname",
              "type": "string"
            },
            {
              "internalType": "address",
              "name": "applicantAddress",
              "type": "address"
            }
          ],
          "internalType": "struct Charitable.Applicant[]",
          "name": "",
          "type": "tuple[]"
        }
      ],
      "stateMutability": "view",
      "type": "function"
    },
    {
      "inputs": [],
      "name": "getAllTransactions",
      "outputs": [
        {
          "components": [
            {
              "internalType": "address",
              "name": "from",
              "type": "address"
            },
            {
              "internalType": "address",
              "name": "to",
              "type": "address"
            },
            {
              "internalType": "uint256",
              "name": "amount",
              "type": "uint256"
            },
            {
              "internalType": "uint256",
              "name": "timestamp",
              "type": "uint256"
            },
            {
              "internalType": "string",
              "name": "message",
              "type": "string"
            }
          ],
          "internalType": "struct Charitable.TransferStruct[]",
          "name": "",
          "type": "tuple[]"
        }
      ],
      "stateMutability": "view",
      "type": "function"
    },
    {
      "inputs": [
        {
          "internalType": "string",
          "name": "_id",
          "type": "string"
        }
      ],
      "name": "getApplicant",
      "outputs": [
        {
          "components": [
            {
              "internalType": "string",
              "name": "id",
              "type": "string"
            },
            {
              "internalType": "string",
              "name": "fullname",
              "type": "string"
            },
            {
              "internalType": "address",
              "name": "applicantAddress",
              "type": "address"
            }
          ],
          "internalType": "struct Charitable.Applicant",
          "name": "",
          "type": "tuple"
        }
      ],
      "stateMutability": "nonpayable",
      "type": "function"
    },
    {
      "inputs": [],
      "name": "getApplicantsCount",
      "outputs": [
        {
          "internalType": "uint256",
          "name": "",
          "type": "uint256"
        }
      ],
      "stateMutability": "view",
      "type": "function"
    },
    {
      "inputs": [],
      "name": "getTransactionCount",
      "outputs": [
        {
          "internalType": "uint256",
          "name": "",
          "type": "uint256"
        }
      ],
      "stateMutability": "view",
      "type": "function"
    },
    {
      "inputs": [
        {
          "internalType": "string",
          "name": "_id",
          "type": "string"
        },
        {
          "internalType": "string",
          "name": "_fullName",
          "type": "string"
        },
        {
          "internalType": "address",
          "name": "_applicantAddress",
          "type": "address"
        }
      ],
      "name": "newApplicant",
      "outputs": [],
      "stateMutability": "nonpayable",
      "type": "function"
    },
    {
      "inputs": [
        {
          "internalType": "address payable",
          "name": "applicant",
          "type": "address"
        },
        {
          "internalType": "uint256",
          "name": "amount",
          "type": "uint256"
        },
        {
          "internalType": "string",
          "name": "message",
          "type": "string"
        }
      ],
      "name": "newTransaction",
      "outputs": [],
      "stateMutability": "nonpayable",
      "type": "function"
    }
  ],
  "bytecode": "0x608060405234801561001057600080fd5b5061180e806100206000396000f3fe608060405234801561001057600080fd5b506004361061007d5760003560e01c80636a546ce91161005b5780636a546ce9146100dc5780638fee67bf146100f8578063a034e10d14610128578063fa863c44146101445761007d565b806327506f53146100825780632e7700f0146100a0578063388d5399146100be575b600080fd5b61008a610162565b60405161009791906113a1565b60405180910390f35b6100a8610313565b6040516100b5919061144a565b60405180910390f35b6100c661031c565b6040516100d3919061137f565b60405180910390f35b6100f660048036038101906100f19190610f90565b6104f5565b005b610112600480360381019061010d9190610f4f565b61062c565b60405161011f9190611428565b60405180910390f35b610142600480360381019061013d9190610ee8565b610939565b005b61014c610ad3565b604051610159919061144a565b60405180910390f35b60606003805480602002602001604051908101604052809291908181526020016000905b8282101561030a57838290600052602060002090600502016040518060a00160405290816000820160009054906101000a900473ffffffffffffffffffffffffffffffffffffffff1673ffffffffffffffffffffffffffffffffffffffff1673ffffffffffffffffffffffffffffffffffffffff1681526020016001820160009054906101000a900473ffffffffffffffffffffffffffffffffffffffff1673ffffffffffffffffffffffffffffffffffffffff1673ffffffffffffffffffffffffffffffffffffffff168152602001600282015481526020016003820154815260200160048201805461027990611620565b80601f01602080910402602001604051908101604052809291908181526020018280546102a590611620565b80156102f25780601f106102c7576101008083540402835291602001916102f2565b820191906000526020600020905b8154815290600101906020018083116102d557829003601f168201915b50505050508152505081526020019060010190610186565b50505050905090565b60008054905090565b60606002805480602002602001604051908101604052809291908181526020016000905b828210156104ec578382906000526020600020906003020160405180606001604052908160008201805461037390611620565b80601f016020809104026020016040519081016040528092919081815260200182805461039f90611620565b80156103ec5780601f106103c1576101008083540402835291602001916103ec565b820191906000526020600020905b8154815290600101906020018083116103cf57829003601f168201915b5050505050815260200160018201805461040590611620565b80601f016020809104026020016040519081016040528092919081815260200182805461043190611620565b801561047e5780601f106104535761010080835404028352916020019161047e565b820191906000526020600020905b81548152906001019060200180831161046157829003601f168201915b505050505081526020016002820160009054906101000a900473ffffffffffffffffffffffffffffffffffffffff1673ffffffffffffffffffffffffffffffffffffffff1673ffffffffffffffffffffffffffffffffffffffff168152505081526020019060010190610340565b50505050905090565b6001600081548092919061050890611683565b9190505550600260405180606001604052808581526020018481526020018373ffffffffffffffffffffffffffffffffffffffff1681525090806001815401808255809150506001900390600052602060002090600302016000909190919091506000820151816000019080519060200190610585929190610d67565b5060208201518160010190805190602001906105a2929190610d67565b5060408201518160020160006101000a81548173ffffffffffffffffffffffffffffffffffffffff021916908373ffffffffffffffffffffffffffffffffffffffff16021790555050507f42d67b0b885f3efb0ee3837a6a47cdb69ba4e228064089608e506097f8f7add983838360405161061f939291906113c3565b60405180910390a1505050565b610634610ded565b60006001548110156109325761071d6002828154811061067d577f4e487b7100000000000000000000000000000000000000000000000000000000600052603260045260246000fd5b9060005260206000209060030201600001805461069990611620565b80601f01602080910402602001604051908101604052809291908181526020018280546106c590611620565b80156107125780601f106106e757610100808354040283529160200191610712565b820191906000526020600020905b8154815290600101906020018083116106f557829003601f168201915b505050505084610add565b156108f7576002818154811061075c577f4e487b7100000000000000000000000000000000000000000000000000000000600052603260045260246000fd5b906000526020600020906003020160405180606001604052908160008201805461078590611620565b80601f01602080910402602001604051908101604052809291908181526020018280546107b190611620565b80156107fe5780601f106107d3576101008083540402835291602001916107fe565b820191906000526020600020905b8154815290600101906020018083116107e157829003601f168201915b5050505050815260200160018201805461081790611620565b80601f016020809104026020016040519081016040528092919081815260200182805461084390611620565b80156108905780601f1061086557610100808354040283529160200191610890565b820191906000526020600020905b81548152906001019060200180831161087357829003601f168201915b505050505081526020016002820160009054906101000a900473ffffffffffffffffffffffffffffffffffffffff1673ffffffffffffffffffffffffffffffffffffffff1673ffffffffffffffffffffffffffffffffffffffff1681525050915050610934565b6040517f08c379a000000000000000000000000000000000000000000000000000000000815260040161092990611408565b60405180910390fd5b505b919050565b60008081548092919061094b90611683565b919050555060036040518060a001604052803373ffffffffffffffffffffffffffffffffffffffff1681526020018573ffffffffffffffffffffffffffffffffffffffff16815260200184815260200142815260200183815250908060018154018082558091505060019003906000526020600020906005020160009091909190915060008201518160000160006101000a81548173ffffffffffffffffffffffffffffffffffffffff021916908373ffffffffffffffffffffffffffffffffffffffff16021790555060208201518160010160006101000a81548173ffffffffffffffffffffffffffffffffffffffff021916908373ffffffffffffffffffffffffffffffffffffffff16021790555060408201518160020155606082015181600301556080820151816004019080519060200190610a8c929190610d67565b5050507fa7723b73b0c342c864febfffd713609dad5ca11df9993d54f75dfdc39c74a8363384844285604051610ac6959493929190611325565b60405180910390a1505050565b6000600154905090565b600080610aea8484610af3565b14905092915050565b60008083905060008390506000825190508082511015610b1257815190505b60005b81811015610d0d57828181518110610b56577f4e487b7100000000000000000000000000000000000000000000000000000000600052603260045260246000fd5b602001015160f81c60f81b7effffffffffffffffffffffffffffffffffffffffffffffffffffffffffffff1916848281518110610bbc577f4e487b7100000000000000000000000000000000000000000000000000000000600052603260045260246000fd5b602001015160f81c60f81b7effffffffffffffffffffffffffffffffffffffffffffffffffffffffffffff19161015610c1b577fffffffffffffffffffffffffffffffffffffffffffffffffffffffffffffffff945050505050610d61565b828181518110610c54577f4e487b7100000000000000000000000000000000000000000000000000000000600052603260045260246000fd5b602001015160f81c60f81b7effffffffffffffffffffffffffffffffffffffffffffffffffffffffffffff1916848281518110610cba577f4e487b7100000000000000000000000000000000000000000000000000000000600052603260045260246000fd5b602001015160f81c60f81b7effffffffffffffffffffffffffffffffffffffffffffffffffffffffffffff19161115610cfa576001945050505050610d61565b8080610d0590611683565b915050610b15565b50815183511015610d43577fffffffffffffffffffffffffffffffffffffffffffffffffffffffffffffffff9350505050610d61565b815183511115610d595760019350505050610d61565b600093505050505b92915050565b828054610d7390611620565b90600052602060002090601f016020900481019282610d955760008555610ddc565b82601f10610dae57805160ff1916838001178555610ddc565b82800160010185558215610ddc579182015b82811115610ddb578251825591602001919060010190610dc0565b5b509050610de99190610e24565b5090565b60405180606001604052806060815260200160608152602001600073ffffffffffffffffffffffffffffffffffffffff1681525090565b5b80821115610e3d576000816000905550600101610e25565b5090565b6000610e54610e4f8461148a565b611465565b905082815260208101848484011115610e6c57600080fd5b610e778482856115de565b509392505050565b600081359050610e8e81611793565b92915050565b600081359050610ea3816117aa565b92915050565b600082601f830112610eba57600080fd5b8135610eca848260208601610e41565b91505092915050565b600081359050610ee2816117c1565b92915050565b600080600060608486031215610efd57600080fd5b6000610f0b86828701610e94565b9350506020610f1c86828701610ed3565b925050604084013567ffffffffffffffff811115610f3957600080fd5b610f4586828701610ea9565b9150509250925092565b600060208284031215610f6157600080fd5b600082013567ffffffffffffffff811115610f7b57600080fd5b610f8784828501610ea9565b91505092915050565b600080600060608486031215610fa557600080fd5b600084013567ffffffffffffffff811115610fbf57600080fd5b610fcb86828701610ea9565b935050602084013567ffffffffffffffff811115610fe857600080fd5b610ff486828701610ea9565b925050604061100586828701610e7f565b9150509250925092565b600061101b83836111e3565b905092915050565b600061102f8383611291565b905092915050565b611040816115a8565b82525050565b61104f8161155a565b82525050565b61105e8161155a565b82525050565b600061106f826114db565b6110798185611516565b93508360208202850161108b856114bb565b8060005b858110156110c757848403895281516110a8858261100f565b94506110b3836114fc565b925060208a0199505060018101905061108f565b50829750879550505050505092915050565b60006110e4826114e6565b6110ee8185611527565b935083602082028501611100856114cb565b8060005b8581101561113c578484038952815161111d8582611023565b945061112883611509565b925060208a01995050600181019050611104565b50829750879550505050505092915050565b6000611159826114f1565b6111638185611538565b93506111738185602086016115ed565b61117c81611759565b840191505092915050565b6000611192826114f1565b61119c8185611549565b93506111ac8185602086016115ed565b6111b581611759565b840191505092915050565b60006111cd600983611549565b91506111d88261176a565b602082019050919050565b60006060830160008301518482036000860152611200828261114e565b9150506020830151848203602086015261121a828261114e565b915050604083015161122f6040860182611046565b508091505092915050565b60006060830160008301518482036000860152611257828261114e565b91505060208301518482036020860152611271828261114e565b91505060408301516112866040860182611046565b508091505092915050565b600060a0830160008301516112a96000860182611046565b5060208301516112bc6020860182611046565b5060408301516112cf6040860182611307565b5060608301516112e26060860182611307565b50608083015184820360808601526112fa828261114e565b9150508091505092915050565b6113108161159e565b82525050565b61131f8161159e565b82525050565b600060a08201905061133a6000830188611055565b6113476020830187611037565b6113546040830186611316565b6113616060830185611316565b81810360808301526113738184611187565b90509695505050505050565b600060208201905081810360008301526113998184611064565b905092915050565b600060208201905081810360008301526113bb81846110d9565b905092915050565b600060608201905081810360008301526113dd8186611187565b905081810360208301526113f18185611187565b90506114006040830184611055565b949350505050565b60006020820190508181036000830152611421816111c0565b9050919050565b60006020820190508181036000830152611442818461123a565b905092915050565b600060208201905061145f6000830184611316565b92915050565b600061146f611480565b905061147b8282611652565b919050565b6000604051905090565b600067ffffffffffffffff8211156114a5576114a461172a565b5b6114ae82611759565b9050602081019050919050565b6000819050602082019050919050565b6000819050602082019050919050565b600081519050919050565b600081519050919050565b600081519050919050565b6000602082019050919050565b6000602082019050919050565b600082825260208201905092915050565b600082825260208201905092915050565b600082825260208201905092915050565b600082825260208201905092915050565b60006115658261157e565b9050919050565b60006115778261157e565b9050919050565b600073ffffffffffffffffffffffffffffffffffffffff82169050919050565b6000819050919050565b60006115b3826115ba565b9050919050565b60006115c5826115cc565b9050919050565b60006115d78261157e565b9050919050565b82818337600083830152505050565b60005b8381101561160b5780820151818401526020810190506115f0565b8381111561161a576000848401525b50505050565b6000600282049050600182168061163857607f821691505b6020821081141561164c5761164b6116fb565b5b50919050565b61165b82611759565b810181811067ffffffffffffffff8211171561167a5761167961172a565b5b80604052505050565b600061168e8261159e565b91507fffffffffffffffffffffffffffffffffffffffffffffffffffffffffffffffff8214156116c1576116c06116cc565b5b600182019050919050565b7f4e487b7100000000000000000000000000000000000000000000000000000000600052601160045260246000fd5b7f4e487b7100000000000000000000000000000000000000000000000000000000600052602260045260246000fd5b7f4e487b7100000000000000000000000000000000000000000000000000000000600052604160045260246000fd5b6000601f19601f8301169050919050565b7f4e6f7420666f756e640000000000000000000000000000000000000000000000600082015250565b61179c8161155a565b81146117a757600080fd5b50565b6117b38161156c565b81146117be57600080fd5b50565b6117ca8161159e565b81146117d557600080fd5b5056fea264697066735822122045fb767002baf03ce439783fc1640fd21656cb9e228525a2479b22343b671ba264736f6c63430008040033",
  "linkReferences": {},
  "deployedLinkReferences": {}
}